:100000000C945D000C9485000C9485000C94850084
:100010000C9485000C9485000C9485000C9485004C
:100020000C9485000C9485000C9485000C9485003C
:100030000C9485000C9485000C9485000C9485002C
:100040000C941F040C9485000C9485000C9485007E
:100050000C9485000C9485000C9485000C9485000C
:100060000C9485000C9485000000000024002700FB
:100070002A0000000000250028002B0004040404CE
:100080000404040402020202020203030303030342
:10009000010204081020408001020408102001021F
:1000A00004081020000000080002010000030407FB
:1000B00000000000000000004D0511241FBECFEF1E
:1000C000D8E0DEBFCDBF11E0A0E0B1E0E2EAFFE0A2
:1000D00002C005900D92A632B107D9F721E0A6E241
:1000E000B1E001C01D92A734B207E1F710E0CDE501
:1000F000D0E004C02197FE010E94C907CC35D1078A
:10010000C9F70E9469040C94CF070C940000AF92C9
:10011000BF92CF92DF92EF92FF920F931F93CF93F4
:10012000DF936C017B018B01040F151FEB015E0156
:10013000AE18BF08C017D10759F06991D601ED91EB
:10014000FC910190F081E02DC6010995892B79F78A
:10015000C501DF91CF911F910F91FF90EF90DF903C
:10016000CF90BF90AF90089590E0FC01EC55FF4F09
:100170002491FC01E057FF4F3491FC01E458FF4FFC
:10018000E491EE23C9F0222339F0233001F1A8F4E1
:10019000213019F1223029F1F0E0EE0FFF1FEE5867
:1001A000FF4FA591B4918FB7F894EC91611126C0DF
:1001B00030953E233C938FBF08952730A9F0283017
:1001C000C9F0243049F7809180008F7D03C0809171
:1001D00080008F7780938000DFCF84B58F7784BDD8
:1001E000DBCF84B58F7DFBCF8091B0008F7780937C
:1001F000B000D2CF8091B0008F7DF9CF3E2BDACF07
:10020000CF93DF9390E0FC01E057FF4F2491845897
:100210009F4FFC0184918823D1F090E0880F991FB3
:10022000FC01E859FF4FA591B491FC01EE58FF4F36
:10023000C591D49161110EC09FB7F8948C91E22FB3
:10024000E0958E238C932881E223E8839FBFDF9182
:10025000CF9108958FB7F894EC91E22BEC938FBF78
:10026000F6CF8E3008F08E508770806480937C00CB
:1002700080917A00806480937A0080917A0086FD74
:10028000FCCF809178009091790008953FB7F89461
:1002900080912B0190912C01A0912D01B0912E0104
:1002A00026B5A89B05C02F3F19F00196A11DB11DD1
:1002B0003FBFBA2FA92F982F8827BC01CD01620F0D
:1002C000711D811D911D42E0660F771F881F991FC8
:1002D0004A95D1F708958F929F92AF92BF92CF9295
:1002E000DF92EF92FF920E9446014B015C0188EE83
:1002F000C82E83E0D82EE12CF12C0E94460168190B
:1003000079098A099B09683E734081059105A8F324
:1003100021E0C21AD108E108F10888EE880E83E0D6
:10032000981EA11CB11CC114D104E104F10429F7E9
:10033000FF90EF90DF90CF90BF90AF909F908F9005
:100340000895089590E080E00895FC010190002058
:10035000E9F73197AF01481B590BBC018FE291E0DF
:100360000C9487008F929F92AF92BF920F931F932E
:10037000CF93DF93CDB7DEB7A1970FB6F894DEBF6A
:100380000FBECDBF19A2423008F44AE08E010F5DC6
:100390001F4F842E912CB12CA12CA50194010E94F9
:1003A000A707E62FB901CA01EA30F4F4E05DD801ED
:1003B000EE938D01232B242B252B79F790E080E001
:1003C000109719F0CD010E94A501A1960FB6F894DF
:1003D000DEBF0FBECDBFDF91CF911F910F91BF90B8
:1003E000AF909F908F900895E95CE1CFCF93DF931A
:1003F000EC0160E08E810E94B40061E08E810E9479
:10040000B40060E08E810E94B4008BE891E0019717
:10041000F1F7DF91CF910895CF92DF92EF92FF92A3
:100420000F931F93CF93DF936C017C0187E0E80E5D
:10043000F11CD0E0C0E0062F10E0B8010C2E02C085
:10044000759567950A94E2F76170F70181917F01D4
:100450000E94B4002196C430D10579F7C601DF911E
:10046000CF911F910F91FF90EF90DF90CF900C9460
:10047000F601CF92DF92EF92FF920F931F93CF93EB
:10048000DF93EC01F62E642F8C810E94B4008D81E5
:100490008F3F19F060E00E94B4000F2D10E08F85AF
:1004A00084FF25C06E0187E0C80ED11CF12CE12C21
:1004B000B8010E2C02C0759567950A94E2F7617039
:1004C000F60181916F010E94B400FFEFEF1AFF0A5D
:1004D00088E0E816F10461F7CE01DF91CF911F911A
:1004E0000F91FF90EF90DF90CF900C94F601B80140
:1004F00084E0759567958A95E1F7CE010E940C021C
:100500006F2DCE01DF91CF911F910F91FF90EF9052
:10051000DF90CF900C940C0240E0682F8FE291E0C6
:100520000C94390281E00E948C028BE39FE10197D9
:10053000F1F70895CF93DF93823029F490913E0133
:10054000986090933E01809342011092430180E4B1
:100550008093440180E18093450180E580934601CA
:1005600061E0809133010E940001809134018F3F4E
:1005700019F061E00E94000161E0809135010E9464
:100580000001CFE2D1E09E012F52314080913E0127
:1005900084FD0BC084E090E021962817390744F4CD
:1005A00061E08E810E940001EECF88E090E0F4CF00
:1005B0008BE39DE00197F1F760E0809133010E94A9
:1005C000B40060E0809135010E94B4008091340154
:1005D0008F3F19F060E00E94B40080913E0184FDDD
:1005E00034C063E08FE291E00E940C02CBE4D6E4D9
:1005F000CE010197F1F763E08FE291E00E940C02D7
:100600002197F1F763E08FE291E00E940C0283E50D
:1006100092E00197F1F762E08FE291E00E940C0214
:1006200080913E0180620E948C0284E080933F01B1
:100630008CE00E948C020E94920282E08093400132
:1006400086E0DF91CF910C948C0280620E948C0234
:100650008BE496E40197F1F780913E0180620E945D
:100660008C0283E592E00197F1F780913E01806270
:100670000E948C02D5CF41E00E94390281E090E0D7
:1006800008954F925F926F927F928F929F92AF9256
:10069000BF92CF92DF92EF92FF920F931F93CF936F
:1006A0006B017C01742EAC019B010E94A207882380
:1006B00099F08CE091E0CF911F910F91FF90EF9016
:1006C000DF90CF90BF90AF909F908F907F906F9072
:1006D0005F904F900C94A50146015701E894B7F83C
:1006E0002FEF3FEF4FE75FE7C501B4010E94A2077C
:1006F00081110DC02FEF3FEF4FE75FE7C501B40158
:100700000E94D80518161CF480E191E0D4CF2FEF99
:100710003FEF4FE75FE4C701B6010E9430071816AC
:100720001CF484E191E0C7CF2FEF3FEF4FE75FEC80
:10073000C701B6010E94D80587FDF3CF20E030E065
:10074000A901C701B6010E94D80510E000E087FFAB
:100750000CC041E06DE28FE291E00E943902F7FAAD
:10076000F094F7F8F09401E010E0C0E060E070E091
:1007700080E09FE37C1641F020E030E040E251E46D
:100780000E94DD05CF5FF6CFA70196010E946C05A0
:100790004B015C010E944F062B013C014AE00E9484
:1007A000B201080F191FCC23C9F1C301B2010E9485
:1007B0007E069B01AC01C501B4010E946B054B0193
:1007C0005C0141E06EE28FE291E00E9439020F5F2E
:1007D0001F4FC15018F120E030E040E251E4C50164
:1007E000B4010E9435072B013C010E944F064B01CA
:1007F000B12CA12C4AE0C501B4010E94B201080F3E
:10080000191FC501B4010E947E069B01AC01C30102
:10081000B2010E946B054B015C01DBCFC801CF9197
:100820001F910F91FF90EF90DF90CF90BF90AF900E
:100830009F908F907F906F905F904F9008951F9240
:100840000F920FB60F9211242F933F938F939F9384
:10085000AF93BF938091270190912801A091290126
:10086000B0912A013091260123E0230F2D3758F54E
:100870000196A11DB11D209326018093270190931D
:100880002801A0932901B0932A0180912B01909116
:100890002C01A0912D01B0912E010196A11DB11D39
:1008A00080932B0190932C01A0932D01B0932E01E6
:1008B000BF91AF919F918F913F912F910F900FBE5C
:1008C0000F901F90189526E8230F0296A11DB11DC9
:1008D000D2CF789484B5826084BD84B5816084BDB4
:1008E00085B5826085BD85B5816085BD80916E00CE
:1008F000816080936E0010928100809181008260FF
:10090000809381008091810081608093810080913B
:1009100080008160809380008091B100846080932A
:10092000B1008091B00081608093B00080917A0026
:10093000846080937A0080917A00826080937A004C
:1009400080917A00816080937A0080917A0080683B
:1009500080937A001092C10082E00E949A0260E0C7
:100960008FE00E94000100E010E00E9492028EE001
:100970000E943101BC01990F880B990B0E948006DF
:1009800020E030E040EA50E40E94350720E030E00B
:1009900048EC52E40E94350720E030E040E85AE39A
:1009A0000E9435074B015C0126E636E646EE5FE322
:1009B0000E94350720E030E040E052E40E946C05E0
:1009C0006B017C0180E00E943101EC01E1E080914B
:1009D00042018111E0E0E195F0E0E15DFE4F8489A4
:1009E00080680E948C0242E0C501B4010E9441036C
:1009F00088E191E00E94A5010E946B01E091420113
:100A0000E23008F048C0E150F0E0E15DFE4F84893B
:100A100080680E948C0242E0C701B6010E94410337
:100A20008BE191E00E94A5010E946B010E9492025D
:100A3000E1E0809142018111E0E0E195F0E0E15DCB
:100A4000FE4F848980680E948C028EE191E00E94B2
:100A5000A5016E01DD0FEE08FF084AE0C701B601EF
:100A6000F7FE0EC041E06DE28FE291E00E94390294
:100A700066277727CB016C197D098E099F094AE00B
:100A80000E94B2010E946B010115110509F46DCF9E
:100A90000E9400006ACFE1E0B7CFEFE2F1E01382FD
:100AA000128284E091E0918380838CE084838FEFD5
:100AB00085838BE0868385E0878384E0808783E07D
:100AC000818782E0828713861486158616861786AC
:100AD00081E00C949A025058BB27AA270E948305F4
:100AE0000C94F6060E94E80638F00E94EF0620F00B
:100AF00039F49F3F19F426F40C94E5060EF4E095C2
:100B0000E7FB0C94DF06E92F0E94070758F3BA179A
:100B1000620773078407950720F079F4A6F50C9413
:100B200029070EF4E0950B2EBA2FA02D0B01B90169
:100B300090010C01CA01A0011124FF27591B99F053
:100B4000593F50F4503E68F11A16F040A22F232F5F
:100B5000342F4427585FF3CF469537952795A795AF
:100B6000F0405395C9F77EF41F16BA0B620B730B56
:100B7000840BBAF09150A1F0FF0FBB1F661F771FC7
:100B8000881FC2F70EC0BA0F621F731F841F48F47C
:100B9000879577956795B795F7959E3F08F0B0CF05
:100BA0009395880F08F09927EE0F979587950895EC
:100BB0000E94BB0608F481E008950E94F1050C94A0
:100BC000F6060E94EF0658F00E94E80640F029F46D
:100BD0005F3F29F00C94DF0651110C942A070C9406
:100BE000E5060E94070768F39923B1F3552391F3B3
:100BF000951B550BBB27AA2762177307840738F08C
:100C00009F5F5F4F220F331F441FAA1FA9F335D0E8
:100C10000E2E3AF0E0E832D091505040E695001C9C
:100C2000CAF72BD0FE2F29D0660F771F881FBB1F56
:100C3000261737074807AB07B0E809F0BB0B802D34
:100C4000BF01FF2793585F4F3AF09E3F510578F060
:100C50000C94DF060C942A075F3FE4F3983ED4F32C
:100C6000869577956795B795F7959F5FC9F7880F34
:100C7000911D9695879597F90895E1E0660F771F86
:100C8000881FBB1F621773078407BA0720F0621B17
:100C9000730B840BBA0BEE1F88F7E09508950E9442
:100CA0000F0788F09F5798F0B92F9927B751B0F0E8
:100CB000E1F0660F771F881F991F1AF0BA95C9F7E0
:100CC00014C0B13091F00E942907B1E008950C944E
:100CD0002907672F782F8827B85F39F0B93FCCF301
:100CE000869577956795B395D9F73EF4909580955D
:100CF000709561957F4F8F4F9F4F0895E89409C07D
:100D000097FB3EF490958095709561957F4F8F4F3E
:100D10009F4F9923A9F0F92F96E9BB279395F69554
:100D2000879577956795B795F111F8CFFAF4BB0FD2
:100D300011F460FF1BC06F5F7F4F8F4F9F4F16C036
:100D4000882311F096E911C0772321F09EE8872FC0
:100D5000762F05C0662371F096E8862F70E060E07C
:100D60002AF09A95660F771F881FDAF7880F9695F5
:100D7000879597F90895990F0008550FAA0BE0E899
:100D8000FEEF16161706E807F907C0F0121613064D
:100D9000E407F50798F0621B730B840B950B39F48D
:100DA0000A2661F0232B242B252B21F408950A26F3
:100DB00009F4A140A6958FEF811D811D089597F933
:100DC0009F6780E870E060E008959FEF80EC0895F1
:100DD00000240A941616170618060906089500241A
:100DE0000A9412161306140605060895092E039494
:100DF000000C11F4882352F0BB0F40F4BF2B11F408
:100E000060FF04C06F5F7F4F8F4F9F4F089557FD66
:100E10009058440F551F59F05F3F71F04795880F68
:100E200097FB991F61F09F3F79F0879508951216FF
:100E300013061406551FF2CF4695F1DF08C01616AB
:100E400017061806991FF1CF86957105610508945C
:100E50000895E894BB2766277727CB0197F9089573
:100E60000E94BB0608F48FEF08950E9448070C9477
:100E7000F6060E94E80638F00E94EF0620F095235F
:100E800011F00C94DF060C94E50611240C942A074B
:100E90000E94070770F3959FC1F3950F50E0551F0F
:100EA000629FF001729FBB27F00DB11D639FAA27BF
:100EB000F00DB11DAA1F649F6627B00DA11D661F0E
:100EC000829F2227B00DA11D621F739FB00DA11D2F
:100ED000621F839FA00D611D221F749F3327A00DE9
:100EE000611D231F849F600D211D822F762F6A2F85
:100EF00011249F5750409AF0F1F088234AF0EE0FEA
:100F0000FF1FBB1F661F771F881F91505040A9F716
:100F10009E3F510580F00C94DF060C942A075F3F3A
:100F2000E4F3983ED4F3869577956795B795F79552
:100F3000E7959F5FC1F7FE2B880F911D96958795CA
:100F400097F908950E94BB06880B990B0895A1E2BA
:100F50001A2EAA1BBB1BFD010DC0AA1FBB1FEE1F33
:100F6000FF1FA217B307E407F50720F0A21BB30B7E
:100F7000E40BF50B661F771F881F991F1A9469F7FA
:100F800060957095809590959B01AC01BD01CF0156
:100F90000895EE0FFF1F0590F491E02D0994F89449
:020FA000FFCF81
:100FA200000000003B038700A201A1016E616E00F8
:100FB200696E66006F766600204300204600204777
:060FC2004153203A00003B
:00000001FF
